{
  "abi": [
    {
      "type": "constructor",
      "inputs": [],
      "stateMutability": "nonpayable"
    },
    {
      "type": "receive",
      "stateMutability": "payable"
    },
    {
      "type": "function",
      "name": "GUARDIAN",
      "inputs": [],
      "outputs": [
        {
          "name": "",
          "type": "address",
          "internalType": "address"
        }
      ],
      "stateMutability": "view"
    },
    {
      "type": "function",
      "name": "L2_ORACLE",
      "inputs": [],
      "outputs": [
        {
          "name": "",
          "type": "address",
          "internalType": "contract L2OutputOracle"
        }
      ],
      "stateMutability": "view"
    },
    {
      "type": "function",
      "name": "SYSTEM_CONFIG",
      "inputs": [],
      "outputs": [
        {
          "name": "",
          "type": "address",
          "internalType": "contract SystemConfig"
        }
      ],
      "stateMutability": "view"
    },
    {
      "type": "function",
      "name": "depositTransaction",
      "inputs": [
        {
          "name": "_to",
          "type": "address",
          "internalType": "address"
        },
        {
          "name": "_value",
          "type": "uint256",
          "internalType": "uint256"
        },
        {
          "name": "_gasLimit",
          "type": "uint64",
          "internalType": "uint64"
        },
        {
          "name": "_isCreation",
          "type": "bool",
          "internalType": "bool"
        },
        {
          "name": "_data",
          "type": "bytes",
          "internalType": "bytes"
        }
      ],
      "outputs": [],
      "stateMutability": "payable"
    },
    {
      "type": "function",
      "name": "donateETH",
      "inputs": [],
      "outputs": [],
      "stateMutability": "payable"
    },
    {
      "type": "function",
      "name": "finalizeWithdrawalTransaction",
      "inputs": [
        {
          "name": "_tx",
          "type": "tuple",
          "internalType": "struct Types.WithdrawalTransaction",
          "components": [
            {
              "name": "nonce",
              "type": "uint256",
              "internalType": "uint256"
            },
            {
              "name": "sender",
              "type": "address",
              "internalType": "address"
            },
            {
              "name": "target",
              "type": "address",
              "internalType": "address"
            },
            {
              "name": "value",
              "type": "uint256",
              "internalType": "uint256"
            },
            {
              "name": "gasLimit",
              "type": "uint256",
              "internalType": "uint256"
            },
            {
              "name": "data",
              "type": "bytes",
              "internalType": "bytes"
            }
          ]
        }
      ],
      "outputs": [],
      "stateMutability": "nonpayable"
    },
    {
      "type": "function",
      "name": "finalizedWithdrawals",
      "inputs": [
        {
          "name": "",
          "type": "bytes32",
          "internalType": "bytes32"
        }
      ],
      "outputs": [
        {
          "name": "",
          "type": "bool",
          "internalType": "bool"
        }
      ],
      "stateMutability": "view"
    },
    {
      "type": "function",
      "name": "guardian",
      "inputs": [],
      "outputs": [
        {
          "name": "",
          "type": "address",
          "internalType": "address"
        }
      ],
      "stateMutability": "view"
    },
    {
      "type": "function",
      "name": "initialize",
      "inputs": [
        {
          "name": "_l2Oracle",
          "type": "address",
          "internalType": "contract L2OutputOracle"
        },
        {
          "name": "_systemConfig",
          "type": "address",
          "internalType": "contract SystemConfig"
        },
        {
          "name": "_superchainConfig",
          "type": "address",
          "internalType": "contract SuperchainConfig"
        }
      ],
      "outputs": [],
      "stateMutability": "nonpayable"
    },
    {
      "type": "function",
      "name": "isOutputFinalized",
      "inputs": [
        {
          "name": "_l2OutputIndex",
          "type": "uint256",
          "internalType": "uint256"
        }
      ],
      "outputs": [
        {
          "name": "",
          "type": "bool",
          "internalType": "bool"
        }
      ],
      "stateMutability": "view"
    },
    {
      "type": "function",
      "name": "l2Oracle",
      "inputs": [],
      "outputs": [
        {
          "name": "",
          "type": "address",
          "internalType": "contract L2OutputOracle"
        }
      ],
      "stateMutability": "view"
    },
    {
      "type": "function",
      "name": "l2Sender",
      "inputs": [],
      "outputs": [
        {
          "name": "",
          "type": "address",
          "internalType": "address"
        }
      ],
      "stateMutability": "view"
    },
    {
      "type": "function",
      "name": "minimumGasLimit",
      "inputs": [
        {
          "name": "_byteCount",
          "type": "uint64",
          "internalType": "uint64"
        }
      ],
      "outputs": [
        {
          "name": "",
          "type": "uint64",
          "internalType": "uint64"
        }
      ],
      "stateMutability": "pure"
    },
    {
      "type": "function",
      "name": "params",
      "inputs": [],
      "outputs": [
        {
          "name": "prevBaseFee",
          "type": "uint128",
          "internalType": "uint128"
        },
        {
          "name": "prevBoughtGas",
          "type": "uint64",
          "internalType": "uint64"
        },
        {
          "name": "prevBlockNum",
          "type": "uint64",
          "internalType": "uint64"
        }
      ],
      "stateMutability": "view"
    },
    {
      "type": "function",
      "name": "paused",
      "inputs": [],
      "outputs": [
        {
          "name": "paused_",
          "type": "bool",
          "internalType": "bool"
        }
      ],
      "stateMutability": "view"
    },
    {
      "type": "function",
      "name": "proveWithdrawalTransaction",
      "inputs": [
        {
          "name": "_tx",
          "type": "tuple",
          "internalType": "struct Types.WithdrawalTransaction",
          "components": [
            {
              "name": "nonce",
              "type": "uint256",
              "internalType": "uint256"
            },
            {
              "name": "sender",
              "type": "address",
              "internalType": "address"
            },
            {
              "name": "target",
              "type": "address",
              "internalType": "address"
            },
            {
              "name": "value",
              "type": "uint256",
              "internalType": "uint256"
            },
            {
              "name": "gasLimit",
              "type": "uint256",
              "internalType": "uint256"
            },
            {
              "name": "data",
              "type": "bytes",
              "internalType": "bytes"
            }
          ]
        },
        {
          "name": "_l2OutputIndex",
          "type": "uint256",
          "internalType": "uint256"
        },
        {
          "name": "_outputRootProof",
          "type": "tuple",
          "internalType": "struct Types.OutputRootProof",
          "components": [
            {
              "name": "version",
              "type": "bytes32",
              "internalType": "bytes32"
            },
            {
              "name": "stateRoot",
              "type": "bytes32",
              "internalType": "bytes32"
            },
            {
              "name": "messagePasserStorageRoot",
              "type": "bytes32",
              "internalType": "bytes32"
            },
            {
              "name": "latestBlockhash",
              "type": "bytes32",
              "internalType": "bytes32"
            }
          ]
        },
        {
          "name": "_withdrawalProof",
          "type": "bytes[]",
          "internalType": "bytes[]"
        }
      ],
      "outputs": [],
      "stateMutability": "nonpayable"
    },
    {
      "type": "function",
      "name": "provenWithdrawals",
      "inputs": [
        {
          "name": "",
          "type": "bytes32",
          "internalType": "bytes32"
        }
      ],
      "outputs": [
        {
          "name": "outputRoot",
          "type": "bytes32",
          "internalType": "bytes32"
        },
        {
          "name": "timestamp",
          "type": "uint128",
          "internalType": "uint128"
        },
        {
          "name": "l2OutputIndex",
          "type": "uint128",
          "internalType": "uint128"
        }
      ],
      "stateMutability": "view"
    },
    {
      "type": "function",
      "name": "superchainConfig",
      "inputs": [],
      "outputs": [
        {
          "name": "",
          "type": "address",
          "internalType": "contract SuperchainConfig"
        }
      ],
      "stateMutability": "view"
    },
    {
      "type": "function",
      "name": "systemConfig",
      "inputs": [],
      "outputs": [
        {
          "name": "",
          "type": "address",
          "internalType": "contract SystemConfig"
        }
      ],
      "stateMutability": "view"
    },
    {
      "type": "function",
      "name": "version",
      "inputs": [],
      "outputs": [
        {
          "name": "",
          "type": "string",
          "internalType": "string"
        }
      ],
      "stateMutability": "view"
    },
    {
      "type": "event",
      "name": "Initialized",
      "inputs": [
        {
          "name": "version",
          "type": "uint8",
          "indexed": false,
          "internalType": "uint8"
        }
      ],
      "anonymous": false
    },
    {
      "type": "event",
      "name": "TransactionDeposited",
      "inputs": [
        {
          "name": "from",
          "type": "address",
          "indexed": true,
          "internalType": "address"
        },
        {
          "name": "to",
          "type": "address",
          "indexed": true,
          "internalType": "address"
        },
        {
          "name": "version",
          "type": "uint256",
          "indexed": true,
          "internalType": "uint256"
        },
        {
          "name": "opaqueData",
          "type": "bytes",
          "indexed": false,
          "internalType": "bytes"
        }
      ],
      "anonymous": false
    },
    {
      "type": "event",
      "name": "WithdrawalFinalized",
      "inputs": [
        {
          "name": "withdrawalHash",
          "type": "bytes32",
          "indexed": true,
          "internalType": "bytes32"
        },
        {
          "name": "success",
          "type": "bool",
          "indexed": false,
          "internalType": "bool"
        }
      ],
      "anonymous": false
    },
    {
      "type": "event",
      "name": "WithdrawalProven",
      "inputs": [
        {
          "name": "withdrawalHash",
          "type": "bytes32",
          "indexed": true,
          "internalType": "bytes32"
        },
        {
          "name": "from",
          "type": "address",
          "indexed": true,
          "internalType": "address"
        },
        {
          "name": "to",
          "type": "address",
          "indexed": true,
          "internalType": "address"
        }
      ],
      "anonymous": false
    }
  ],
  "address": "0xbab330a7AabF25EC4294a5F877ab625CE24DA25b",
  "args": [],
  "bytecode": "0x60806040523480156200001157600080fd5b50620000206000808062000026565b6200028f565b600054610100900460ff1615808015620000475750600054600160ff909116105b806200007757506200006430620001c160201b62001b741760201c565b15801562000077575060005460ff166001145b620000e05760405162461bcd60e51b815260206004820152602e60248201527f496e697469616c697a61626c653a20636f6e747261637420697320616c72656160448201526d191e481a5b9a5d1a585b1a5e995960921b60648201526084015b60405180910390fd5b6000805460ff19166001179055801562000104576000805461ff0019166101001790555b603680546001600160a01b03199081166001600160a01b03878116919091179092556037805490911685831617905560358054610100600160a81b03191661010085841602179055603254166200016a57603280546001600160a01b03191661dead1790555b62000174620001d0565b8015620001bb576000805461ff0019169055604051600181527f7f26b83ff96e1f2b6a682f133852f6798a09c465da95921460cefb38474024989060200160405180910390a15b50505050565b6001600160a01b03163b151590565b600054610100900460ff166200023d5760405162461bcd60e51b815260206004820152602b60248201527f496e697469616c697a61626c653a20636f6e7472616374206973206e6f74206960448201526a6e697469616c697a696e6760a81b6064820152608401620000d7565b600154600160c01b90046001600160401b03166000036200028d5760408051606081018252633b9aca0080825260006020830152436001600160401b031691909201819052600160c01b02176001555b565b6153ed806200029f6000396000f3fe6080604052600436106101625760003560e01c80638c3152e9116100c0578063c0c53b8b11610074578063e965084c11610059578063e965084c146104c7578063e9e05c4214610553578063f04987501461056657600080fd5b8063c0c53b8b14610406578063cff0ab961461042657600080fd5b80639bf62d82116100a55780639bf62d8214610370578063a14238e71461039d578063a35d99df146103cd57600080fd5b80638c3152e9146103235780639b5f694a1461034357600080fd5b806354fd4d50116101175780636dbffb78116100fc5780636dbffb78146102ee578063724c184c1461030e5780638b4c40b01461018757600080fd5b806354fd4d50146102735780635c975abb146102c957600080fd5b806335e80ab31161014857806335e80ab31461020c578063452a93201461023e5780634870496f1461025357600080fd5b80621c2ff61461018e57806333d7e2bd146101df57600080fd5b36610189576101873334620186a0600060405180602001604052806000815250610591565b005b600080fd5b34801561019a57600080fd5b5060365473ffffffffffffffffffffffffffffffffffffffff165b60405173ffffffffffffffffffffffffffffffffffffffff90911681526020015b60405180910390f35b3480156101eb57600080fd5b506037546101b59073ffffffffffffffffffffffffffffffffffffffff1681565b34801561021857600080fd5b506035546101b590610100900473ffffffffffffffffffffffffffffffffffffffff1681565b34801561024a57600080fd5b506101b561082c565b34801561025f57600080fd5b5061018761026e3660046149b4565b6108c4565b34801561027f57600080fd5b506102bc6040518060400160405280600581526020017f322e352e3000000000000000000000000000000000000000000000000000000081525081565b6040516101d69190614b06565b3480156102d557600080fd5b506102de610ef2565b60405190151581526020016101d6565b3480156102fa57600080fd5b506102de610309366004614b19565b610f85565b34801561031a57600080fd5b506101b5611040565b34801561032f57600080fd5b5061018761033e366004614b32565b61104c565b34801561034f57600080fd5b506036546101b59073ffffffffffffffffffffffffffffffffffffffff1681565b34801561037c57600080fd5b506032546101b59073ffffffffffffffffffffffffffffffffffffffff1681565b3480156103a957600080fd5b506102de6103b8366004614b19565b60336020526000908152604090205460ff1681565b3480156103d957600080fd5b506103ed6103e8366004614b8c565b61190d565b60405167ffffffffffffffff90911681526020016101d6565b34801561041257600080fd5b50610187610421366004614ba7565b611926565b34801561043257600080fd5b5060015461048e906fffffffffffffffffffffffffffffffff81169067ffffffffffffffff7001000000000000000000000000000000008204811691780100000000000000000000000000000000000000000000000090041683565b604080516fffffffffffffffffffffffffffffffff909416845267ffffffffffffffff92831660208501529116908201526060016101d6565b3480156104d357600080fd5b506105256104e2366004614b19565b603460205260009081526040902080546001909101546fffffffffffffffffffffffffffffffff8082169170010000000000000000000000000000000090041683565b604080519384526fffffffffffffffffffffffffffffffff92831660208501529116908201526060016101d6565b610187610561366004614c00565b610591565b34801561057257600080fd5b5060375473ffffffffffffffffffffffffffffffffffffffff166101b5565b8260005a905083156106485773ffffffffffffffffffffffffffffffffffffffff87161561064857604080517f08c379a00000000000000000000000000000000000000000000000000000000081526020600482015260248101919091527f4f7074696d69736d506f7274616c3a206d7573742073656e6420746f2061646460448201527f72657373283029207768656e206372656174696e67206120636f6e747261637460648201526084015b60405180910390fd5b610652835161190d565b67ffffffffffffffff168567ffffffffffffffff1610156106f5576040517f08c379a000000000000000000000000000000000000000000000000000000000815260206004820152602360248201527f4f7074696d69736d506f7274616c3a20676173206c696d697420746f6f20736d60448201527f616c6c0000000000000000000000000000000000000000000000000000000000606482015260840161063f565b6201d4c083511115610763576040517f08c379a000000000000000000000000000000000000000000000000000000000815260206004820152601e60248201527f4f7074696d69736d506f7274616c3a206461746120746f6f206c617267650000604482015260640161063f565b33328114610784575033731111000000000000000000000000000000001111015b6000348888888860405160200161079f959493929190614c7d565b604051602081830303815290604052905060008973ffffffffffffffffffffffffffffffffffffffff168373ffffffffffffffffffffffffffffffffffffffff167fb3813568d9991fc951961fcb4c784893574240a28925604d09fc577c55bb7c328460405161080f9190614b06565b60405180910390a450506108238282611b90565b50505050505050565b6000603560019054906101000a900473ffffffffffffffffffffffffffffffffffffffff1673ffffffffffffffffffffffffffffffffffffffff1663452a93206040518163ffffffff1660e01b8152600401602060405180830381865afa15801561089b573d6000803e3d6000fd5b505050506040513d601f19601f820116820180604052508101906108bf9190614ce2565b905090565b6108cc610ef2565b15610933576040517f08c379a000000000000000000000000000000000000000000000000000000000815260206004820152601660248201527f4f7074696d69736d506f7274616c3a2070617573656400000000000000000000604482015260640161063f565b3073ffffffffffffffffffffffffffffffffffffffff16856040015173ffffffffffffffffffffffffffffffffffffffff16036109f2576040517f08c379a000000000000000000000000000000000000000000000000000000000815260206004820152603f60248201527f4f7074696d69736d506f7274616c3a20796f752063616e6e6f742073656e642060448201527f6d6573736167657320746f2074686520706f7274616c20636f6e747261637400606482015260840161063f565b6036546040517fa25ae5570000000000000000000000000000000000000000000000000000000081526004810186905260009173ffffffffffffffffffffffffffffffffffffffff169063a25ae55790602401606060405180830381865afa158015610a62573d6000803e3d6000fd5b505050506040513d601f19601f82011682018060405250810190610a869190614d1f565b519050610aa0610a9b36869003860186614d84565b611ebd565b8114610b2e576040517f08c379a000000000000000000000000000000000000000000000000000000000815260206004820152602960248201527f4f7074696d69736d506f7274616c3a20696e76616c6964206f7574707574207260448201527f6f6f742070726f6f660000000000000000000000000000000000000000000000606482015260840161063f565b6000610b3987611f19565b6000818152603460209081526040918290208251606081018452815481526001909101546fffffffffffffffffffffffffffffffff8082169383018490527001000000000000000000000000000000009091041692810192909252919250901580610c4f5750805160365460408084015190517fa25ae5570000000000000000000000000000000000000000000000000000000081526fffffffffffffffffffffffffffffffff909116600482015273ffffffffffffffffffffffffffffffffffffffff9091169063a25ae55790602401606060405180830381865afa158015610c27573d6000803e3d6000fd5b505050506040513d601f19601f82011682018060405250810190610c4b9190614d1f565b5114155b610cdb576040517f08c379a000000000000000000000000000000000000000000000000000000000815260206004820152603760248201527f4f7074696d69736d506f7274616c3a207769746864726177616c20686173682060448201527f68617320616c7265616479206265656e2070726f76656e000000000000000000606482015260840161063f565b60408051602081018490526000918101829052606001604080517fffffffffffffffffffffffffffffffffffffffffffffffffffffffffffffffe081840301815282825280516020918201209083018190529250610da49101604080517fffffffffffffffffffffffffffffffffffffffffffffffffffffffffffffffe0818403018152828201909152600182527f0100000000000000000000000000000000000000000000000000000000000000602083015290610d9a888a614dea565b8a60400135611f49565b610e30576040517f08c379a000000000000000000000000000000000000000000000000000000000815260206004820152603260248201527f4f7074696d69736d506f7274616c3a20696e76616c696420776974686472617760448201527f616c20696e636c7573696f6e2070726f6f660000000000000000000000000000606482015260840161063f565b604080516060810182528581526fffffffffffffffffffffffffffffffff42811660208084019182528c831684860190815260008981526034835286812095518655925190518416700100000000000000000000000000000000029316929092176001909301929092558b830151908c0151925173ffffffffffffffffffffffffffffffffffffffff918216939091169186917f67a6208cfcc0801d50f6cbe764733f4fddf66ac0b04442061a8a8c0cb6b63f629190a4505050505050505050565b6000603560019054906101000a900473ffffffffffffffffffffffffffffffffffffffff1673ffffffffffffffffffffffffffffffffffffffff16635c975abb6040518163ffffffff1660e01b8152600401602060405180830381865afa158015610f61573d6000803e3d6000fd5b505050506040513d601f19601f820116820180604052508101906108bf9190614e6e565b6036546040517fa25ae5570000000000000000000000000000000000000000000000000000000081526004810183905260009161103a9173ffffffffffffffffffffffffffffffffffffffff9091169063a25ae55790602401606060405180830381865afa158015610ffb573d6000803e3d6000fd5b505050506040513d601f19601f8201168201806040525081019061101f9190614d1f565b602001516fffffffffffffffffffffffffffffffff16611f6d565b92915050565b60006108bf61082c565b565b611054610ef2565b156110bb576040517f08c379a000000000000000000000000000000000000000000000000000000000815260206004820152601660248201527f4f7074696d69736d506f7274616c3a2070617573656400000000000000000000604482015260640161063f565b60325473ffffffffffffffffffffffffffffffffffffffff1661dead14611164576040517f08c379a000000000000000000000000000000000000000000000000000000000815260206004820152603f60248201527f4f7074696d69736d506f7274616c3a2063616e206f6e6c79207472696767657260448201527f206f6e65207769746864726177616c20706572207472616e73616374696f6e00606482015260840161063f565b600061116f82611f19565b60008181526034602090815260408083208151606081018352815481526001909101546fffffffffffffffffffffffffffffffff8082169483018590527001000000000000000000000000000000009091041691810191909152929350900361125a576040517f08c379a000000000000000000000000000000000000000000000000000000000815260206004820152603260248201527f4f7074696d69736d506f7274616c3a207769746864726177616c20686173206e60448201527f6f74206265656e2070726f76656e207965740000000000000000000000000000606482015260840161063f565b603660009054906101000a900473ffffffffffffffffffffffffffffffffffffffff1673ffffffffffffffffffffffffffffffffffffffff1663887862726040518163ffffffff1660e01b8152600401602060405180830381865afa1580156112c7573d6000803e3d6000fd5b505050506040513d601f19601f820116820180604052508101906112eb9190614e8b565b81602001516fffffffffffffffffffffffffffffffff1610156113b6576040517f08c379a000000000000000000000000000000000000000000000000000000000815260206004820152604b60248201527f4f7074696d69736d506f7274616c3a207769746864726177616c2074696d657360448201527f74616d70206c657373207468616e204c32204f7261636c65207374617274696e60648201527f672074696d657374616d70000000000000000000000000000000000000000000608482015260a40161063f565b6113d581602001516fffffffffffffffffffffffffffffffff16611f6d565b611487576040517f08c379a000000000000000000000000000000000000000000000000000000000815260206004820152604560248201527f4f7074696d69736d506f7274616c3a2070726f76656e2077697468647261776160448201527f6c2066696e616c697a6174696f6e20706572696f6420686173206e6f7420656c60648201527f6170736564000000000000000000000000000000000000000000000000000000608482015260a40161063f565b60365460408281015190517fa25ae5570000000000000000000000000000000000000000000000000000000081526fffffffffffffffffffffffffffffffff909116600482015260009173ffffffffffffffffffffffffffffffffffffffff169063a25ae55790602401606060405180830381865afa15801561150e573d6000803e3d6000fd5b505050506040513d601f19601f820116820180604052508101906115329190614d1f565b82518151919250146115ec576040517f08c379a000000000000000000000000000000000000000000000000000000000815260206004820152604960248201527f4f7074696d69736d506f7274616c3a206f757470757420726f6f742070726f7660448201527f656e206973206e6f74207468652073616d652061732063757272656e74206f7560648201527f7470757420726f6f740000000000000000000000000000000000000000000000608482015260a40161063f565b61160b81602001516fffffffffffffffffffffffffffffffff16611f6d565b6116bd576040517f08c379a000000000000000000000000000000000000000000000000000000000815260206004820152604360248201527f4f7074696d69736d506f7274616c3a206f75747075742070726f706f73616c2060448201527f66696e616c697a6174696f6e20706572696f6420686173206e6f7420656c617060648201527f7365640000000000000000000000000000000000000000000000000000000000608482015260a40161063f565b60008381526033602052604090205460ff161561175c576040517f08c379a000000000000000000000000000000000000000000000000000000000815260206004820152603560248201527f4f7074696d69736d506f7274616c3a207769746864726177616c20686173206160448201527f6c7265616479206265656e2066696e616c697a65640000000000000000000000606482015260840161063f565b600083815260336020908152604080832080547fffffffffffffffffffffffffffffffffffffffffffffffffffffffffffffff00166001179055908601516032805473ffffffffffffffffffffffffffffffffffffffff9092167fffffffffffffffffffffffff00000000000000000000000000000000000000009092169190911790558501516080860151606087015160a08801516117fe93929190612013565b603280547fffffffffffffffffffffffff00000000000000000000000000000000000000001661dead17905560405190915084907fdb5c7652857aa163daadd670e116628fb42e869d8ac4251ef8971d9e5727df1b9061186390841515815260200190565b60405180910390a2801580156118795750326001145b15611906576040517f08c379a000000000000000000000000000000000000000000000000000000000815260206004820152602160248201527f4f7074696d69736d506f7274616c3a207769746864726177616c206661696c6560448201527f6400000000000000000000000000000000000000000000000000000000000000606482015260840161063f565b5050505050565b600061191a826010614ed3565b61103a90615208614f03565b600054610100900460ff16158080156119465750600054600160ff909116105b806119605750303b158015611960575060005460ff166001145b6119ec576040517f08c379a000000000000000000000000000000000000000000000000000000000815260206004820152602e60248201527f496e697469616c697a61626c653a20636f6e747261637420697320616c72656160448201527f647920696e697469616c697a6564000000000000000000000000000000000000606482015260840161063f565b600080547fffffffffffffffffffffffffffffffffffffffffffffffffffffffffffffff001660011790558015611a4a57600080547fffffffffffffffffffffffffffffffffffffffffffffffffffffffffffff00ff166101001790555b603680547fffffffffffffffffffffffff000000000000000000000000000000000000000090811673ffffffffffffffffffffffffffffffffffffffff8781169190911790925560378054909116858316179055603580547fffffffffffffffffffffff0000000000000000000000000000000000000000ff166101008584160217905560325416611b0357603280547fffffffffffffffffffffffff00000000000000000000000000000000000000001661dead1790555b611b0b612071565b8015611b6e57600080547fffffffffffffffffffffffffffffffffffffffffffffffffffffffffffff00ff169055604051600181527f7f26b83ff96e1f2b6a682f133852f6798a09c465da95921460cefb38474024989060200160405180910390a15b50505050565b73ffffffffffffffffffffffffffffffffffffffff163b151590565b600154600090611bc6907801000000000000000000000000000000000000000000000000900467ffffffffffffffff1643614f2f565b90506000611bd2612184565b90506000816020015160ff16826000015163ffffffff16611bf39190614f75565b90508215611d2a57600154600090611c2a908390700100000000000000000000000000000000900467ffffffffffffffff16614fdd565b90506000836040015160ff1683611c419190615051565b600154611c619084906fffffffffffffffffffffffffffffffff16615051565b611c6b9190614f75565b600154909150600090611cbc90611c959084906fffffffffffffffffffffffffffffffff1661510d565b866060015163ffffffff168760a001516fffffffffffffffffffffffffffffffff16612245565b90506001861115611ceb57611ce8611c9582876040015160ff1660018a611ce39190614f2f565b612264565b90505b6fffffffffffffffffffffffffffffffff16780100000000000000000000000000000000000000000000000067ffffffffffffffff4316021760015550505b60018054869190601090611d5d908490700100000000000000000000000000000000900467ffffffffffffffff16614f03565b92506101000a81548167ffffffffffffffff021916908367ffffffffffffffff160217905550816000015163ffffffff16600160000160109054906101000a900467ffffffffffffffff1667ffffffffffffffff161315611e40576040517f08c379a000000000000000000000000000000000000000000000000000000000815260206004820152603e60248201527f5265736f757263654d65746572696e673a2063616e6e6f7420627579206d6f7260448201527f6520676173207468616e20617661696c61626c6520676173206c696d69740000606482015260840161063f565b600154600090611e6c906fffffffffffffffffffffffffffffffff1667ffffffffffffffff8816615181565b90506000611e7e48633b9aca006122b9565b611e8890836151be565b905060005a611e979088614f2f565b905080821115611eb357611eb3611eae8284614f2f565b6122d0565b5050505050505050565b60008160000151826020015183604001518460600151604051602001611efc949392919093845260208401929092526040830152606082015260800190565b604051602081830303815290604052805190602001209050919050565b80516020808301516040808501516060860151608087015160a08801519351600097611efc9790969591016151d2565b600080611f55866122fe565b9050611f6381868686612330565b9695505050505050565b603654604080517ff4daa291000000000000000000000000000000000000000000000000000000008152905160009273ffffffffffffffffffffffffffffffffffffffff169163f4daa2919160048083019260209291908290030181865afa158015611fdd573d6000803e3d6000fd5b505050506040513d601f19601f820116820180604052508101906120019190614e8b565b61200b9083615229565b421192915050565b6000806000612023866000612360565b905080612059576308c379a06000526020805278185361666543616c6c3a204e6f7420656e6f756768206761736058526064601cfd5b600080855160208701888b5af1979650505050505050565b600054610100900460ff16612108576040517f08c379a000000000000000000000000000000000000000000000000000000000815260206004820152602b60248201527f496e697469616c697a61626c653a20636f6e7472616374206973206e6f74206960448201527f6e697469616c697a696e67000000000000000000000000000000000000000000606482015260840161063f565b6001547801000000000000000000000000000000000000000000000000900467ffffffffffffffff1660000361104a5760408051606081018252633b9aca00808252600060208301524367ffffffffffffffff169190920181905278010000000000000000000000000000000000000000000000000217600155565b6040805160c08082018352600080835260208301819052828401819052606083018190526080830181905260a083015260375483517fcc731b020000000000000000000000000000000000000000000000000000000081529351929373ffffffffffffffffffffffffffffffffffffffff9091169263cc731b02926004808401939192918290030181865afa158015612221573d6000803e3d6000fd5b505050506040513d601f19601f820116820180604052508101906108bf9190615266565b600061225a612254858561237e565b8361238e565b90505b9392505050565b6000670de0b6b3a76400006122a561227c8583614f75565b61228e90670de0b6b3a7640000614fdd565b6122a085670de0b6b3a7640000615051565b61239d565b6122af9086615051565b61225a9190614f75565b6000818310156122c9578161225d565b5090919050565b6000805a90505b825a6122e39083614f2f565b10156122f9576122f282615305565b91506122d7565b505050565b6060818051906020012060405160200161231a91815260200190565b6040516020818303038152906040529050919050565b6000612357846123418786866123ce565b8051602091820120825192909101919091201490565b95945050505050565b600080603f83619c4001026040850201603f5a021015949350505050565b6000818312156122c9578161225d565b60008183126122c9578161225d565b600061225d670de0b6b3a7640000836123b586612e4c565b6123bf9190615051565b6123c99190614f75565b613090565b6060600084511161243b576040517f08c379a000000000000000000000000000000000000000000000000000000000815260206004820152601560248201527f4d65726b6c65547269653a20656d707479206b65790000000000000000000000604482015260640161063f565b6000612446846132cf565b90506000612453866133bb565b905060008460405160200161246a91815260200190565b60405160208183030381529060405290506000805b8451811015612dc357600085828151811061249c5761249c61533d565b602002602001015190508451831115612537576040517f08c379a000000000000000000000000000000000000000000000000000000000815260206004820152602e60248201527f4d65726b6c65547269653a206b657920696e646578206578636565647320746f60448201527f74616c206b6579206c656e677468000000000000000000000000000000000000606482015260840161063f565b826000036125f057805180516020918201206040516125859261255f92910190815260200190565b604051602081830303815290604052858051602091820120825192909101919091201490565b6125eb576040517f08c379a000000000000000000000000000000000000000000000000000000000815260206004820152601d60248201527f4d65726b6c65547269653a20696e76616c696420726f6f742068617368000000604482015260640161063f565b612747565b8051516020116126a6578051805160209182012060405161261a9261255f92910190815260200190565b6125eb576040517f08c379a000000000000000000000000000000000000000000000000000000000815260206004820152602760248201527f4d65726b6c65547269653a20696e76616c6964206c6172676520696e7465726e60448201527f616c206861736800000000000000000000000000000000000000000000000000606482015260840161063f565b805184516020808701919091208251919092012014612747576040517f08c379a000000000000000000000000000000000000000000000000000000000815260206004820152602660248201527f4d65726b6c65547269653a20696e76616c696420696e7465726e616c206e6f6460448201527f6520686173680000000000000000000000000000000000000000000000000000606482015260840161063f565b61275360106001615229565b8160200151510361292f57845183036128c75761278d81602001516010815181106127805761278061533d565b602002602001015161341e565b96506000875111612820576040517f08c379a000000000000000000000000000000000000000000000000000000000815260206004820152603b60248201527f4d65726b6c65547269653a2076616c7565206c656e677468206d75737420626560448201527f2067726561746572207468616e207a65726f20286272616e6368290000000000606482015260840161063f565b6001865161282e9190614f2f565b82146128bc576040517f08c379a000000000000000000000000000000000000000000000000000000000815260206004820152603a60248201527f4d65726b6c65547269653a2076616c7565206e6f6465206d757374206265206c60448201527f617374206e6f646520696e2070726f6f6620286272616e636829000000000000606482015260840161063f565b50505050505061225d565b60008584815181106128db576128db61533d565b602001015160f81c60f81b60f81c9050600082602001518260ff16815181106129065761290661533d565b602002602001015190506129198161357e565b9550612926600186615229565b94505050612db0565b600281602001515103612d28576000612947826135a3565b905060008160008151811061295e5761295e61533d565b016020015160f81c9050600061297560028361536c565b61298090600261538e565b90506000612991848360ff166135c7565b9050600061299f8a896135c7565b905060006129ad83836135fd565b905080835114612a3f576040517f08c379a000000000000000000000000000000000000000000000000000000000815260206004820152603a60248201527f4d65726b6c65547269653a20706174682072656d61696e646572206d7573742060448201527f736861726520616c6c206e6962626c65732077697468206b6579000000000000606482015260840161063f565b60ff851660021480612a54575060ff85166003145b15612c435780825114612ae9576040517f08c379a000000000000000000000000000000000000000000000000000000000815260206004820152603d60248201527f4d65726b6c65547269653a206b65792072656d61696e646572206d757374206260448201527f65206964656e746963616c20746f20706174682072656d61696e646572000000606482015260840161063f565b612b0387602001516001815181106127805761278061533d565b9c5060008d5111612b96576040517f08c379a000000000000000000000000000000000000000000000000000000000815260206004820152603960248201527f4d65726b6c65547269653a2076616c7565206c656e677468206d75737420626560448201527f2067726561746572207468616e207a65726f20286c6561662900000000000000606482015260840161063f565b60018c51612ba49190614f2f565b8814612c32576040517f08c379a000000000000000000000000000000000000000000000000000000000815260206004820152603860248201527f4d65726b6c65547269653a2076616c7565206e6f6465206d757374206265206c60448201527f617374206e6f646520696e2070726f6f6620286c656166290000000000000000606482015260840161063f565b50505050505050505050505061225d565b60ff85161580612c56575060ff85166001145b15612c9557612c828760200151600181518110612c7557612c7561533d565b602002602001015161357e565b9950612c8e818a615229565b9850612d1d565b6040517f08c379a000000000000000000000000000000000000000000000000000000000815260206004820152603260248201527f4d65726b6c65547269653a2072656365697665642061206e6f6465207769746860448201527f20616e20756e6b6e6f776e207072656669780000000000000000000000000000606482015260840161063f565b505050505050612db0565b6040517f08c379a000000000000000000000000000000000000000000000000000000000815260206004820152602860248201527f4d65726b6c65547269653a20726563656976656420616e20756e70617273656160448201527f626c65206e6f6465000000000000000000000000000000000000000000000000606482015260840161063f565b5080612dbb81615305565b91505061247f565b506040517f08c379a000000000000000000000000000000000000000000000000000000000815260206004820152602560248201527f4d65726b6c65547269653a2072616e206f7574206f662070726f6f6620656c6560448201527f6d656e7473000000000000000000000000000000000000000000000000000000606482015260840161063f565b6000808213612eb7576040517f08c379a000000000000000000000000000000000000000000000000000000000815260206004820152600960248201527f554e444546494e45440000000000000000000000000000000000000000000000604482015260640161063f565b60006060612ec4846136b1565b03609f8181039490941b90931c6c465772b2bbbb5f824b15207a3081018102606090811d6d0388eaa27412d5aca026815d636e018202811d6d0df99ac502031bf953eff472fdcc018202811d6d13cdffb29d51d99322bdff5f2211018202811d6d0a0f742023def783a307a986912e018202811d6d01920d8043ca89b5239253284e42018202811d6c0b7a86d7375468fac667a0a527016c29508e458543d8aa4df2abee7883018302821d6d0139601a2efabe717e604cbb4894018302821d6d02247f7a7b6594320649aa03aba1018302821d7fffffffffffffffffffffffffffffffffffffff73c0c716a594e00d54e3c4cbc9018302821d7ffffffffffffffffffffffffffffffffffffffdc7b88c420e53a9890533129f6f01830290911d7fffffffffffffffffffffffffffffffffffffff465fda27eb4d63ded474e5f832019091027ffffffffffffffff5f6af8f7b3396644f18e157960000000000000000000000000105711340daa0d5f769dba1915cef59f0815a5506027d0267a36c0c95b3975ab3ee5b203a7614a3f75373f047d803ae7b6687f2b393909302929092017d57115e47018c7177eebf7cd370a3356a1b7863008a5ae8028c72b88642840160ae1d92915050565b60007ffffffffffffffffffffffffffffffffffffffffffffffffdb731c958f34d94c182136130c157506000919050565b680755bf798b4a1bf1e58212613133576040517f08c379a000000000000000000000000000000000000000000000000000000000815260206004820152600c60248201527f4558505f4f564552464c4f570000000000000000000000000000000000000000604482015260640161063f565b6503782dace9d9604e83901b059150600060606bb17217f7d1cf79abc9e3b39884821b056b80000000000000000000000001901d6bb17217f7d1cf79abc9e3b39881029093037fffffffffffffffffffffffffffffffffffffffdbf3ccf1604d263450f02a550481018102606090811d6d0277594991cfc85f6e2461837cd9018202811d7fffffffffffffffffffffffffffffffffffffe5adedaa1cb095af9e4da10e363c018202811d6db1bbb201f443cf962f1a1d3db4a5018202811d7ffffffffffffffffffffffffffffffffffffd38dc772608b0ae56cce01296c0eb018202811d6e05180bb14799ab47a8a8cb2a527d57016d02d16720577bd19bf614176fe9ea6c10fe68e7fd37d0007b713f765084018402831d9081019084017ffffffffffffffffffffffffffffffffffffffe2c69812cf03b0763fd454a8f7e010290911d6e0587f503bb6ea29d25fcb7401964500190910279d835ebba824c98fb31b83b2ca45c000000000000000000000000010574029d9dc38563c32e5c2f6dc192ee70ef65f9978af30260c3939093039290921c92915050565b80516060908067ffffffffffffffff8111156132ed576132ed6147d4565b60405190808252806020026020018201604052801561333257816020015b604080518082019091526060808252602082015281526020019060019003908161330b5790505b50915060005b818110156133b457604051806040016040528085838151811061335d5761335d61533d565b6020026020010151815260200161338c86848151811061337f5761337f61533d565b6020026020010151613787565b8152508382815181106133a1576133a161533d565b6020908102919091010152600101613338565b5050919050565b606080604051905082518060011b603f8101601f1916830160405280835250602084016020830160005b83811015613413578060011b82018184015160001a8060041c8253600f8116600183015350506001016133e5565b509295945050505050565b6060600080600061342e8561379a565b919450925090506000816001811115613449576134496153b1565b146134d6576040517f08c379a000000000000000000000000000000000000000000000000000000000815260206004820152603960248201527f524c505265616465723a206465636f646564206974656d207479706520666f7260448201527f206279746573206973206e6f7420612064617461206974656d00000000000000606482015260840161063f565b6134e08284615229565b85511461356f576040517f08c379a000000000000000000000000000000000000000000000000000000000815260206004820152603460248201527f524c505265616465723a2062797465732076616c756520636f6e7461696e732060448201527f616e20696e76616c69642072656d61696e646572000000000000000000000000606482015260840161063f565b61235785602001518484614207565b6060602082600001511061359a576135958261341e565b61103a565b61103a8261429b565b606061103a6135c283602001516000815181106127805761278061533d565b6133bb565b6060825182106135e6575060408051602081019091526000815261103a565b61225d83838486516135f89190614f2f565b6142b1565b6000808251845110613610578251613613565b83515b90505b808210801561369a57508282815181106136325761363261533d565b602001015160f81c60f81b7effffffffffffffffffffffffffffffffffffffffffffffffffffffffffffff19168483815181106136715761367161533d565b01602001517fff0000000000000000000000000000000000000000000000000000000000000016145b156136aa57816001019150613616565b5092915050565b600080821161371c576040517f08c379a000000000000000000000000000000000000000000000000000000000815260206004820152600960248201527f554e444546494e45440000000000000000000000000000000000000000000000604482015260640161063f565b5060016fffffffffffffffffffffffffffffffff821160071b82811c67ffffffffffffffff1060061b1782811c63ffffffff1060051b1782811c61ffff1060041b1782811c60ff10600390811b90911783811c600f1060021b1783811c909110821b1791821c111790565b606061103a61379583614489565b614572565b600080600080846000015111613858576040517f08c379a000000000000000000000000000000000000000000000000000000000815260206004820152604a60248201527f524c505265616465723a206c656e677468206f6620616e20524c50206974656d60448201527f206d7573742062652067726561746572207468616e207a65726f20746f20626560648201527f206465636f6461626c6500000000000000000000000000000000000000000000608482015260a40161063f565b6020840151805160001a607f811161387d576000600160009450945094505050614200565b60b78111613a8b576000613892608083614f2f565b90508087600001511161394d576040517f08c379a000000000000000000000000000000000000000000000000000000000815260206004820152604e60248201527f524c505265616465723a206c656e677468206f6620636f6e74656e74206d757360448201527f742062652067726561746572207468616e20737472696e67206c656e6774682060648201527f2873686f727420737472696e6729000000000000000000000000000000000000608482015260a40161063f565b6001838101517fff000000000000000000000000000000000000000000000000000000000000001690821415806139c657507f80000000000000000000000000000000000000000000000000000000000000007fff00000000000000000000000000000000000000000000000000000000000000821610155b613a78576040517f08c379a000000000000000000000000000000000000000000000000000000000815260206004820152604d60248201527f524c505265616465723a20696e76616c6964207072656669782c2073696e676c60448201527f652062797465203c203078383020617265206e6f74207072656669786564202860648201527f73686f727420737472696e672900000000000000000000000000000000000000608482015260a40161063f565b5060019550935060009250614200915050565b60bf8111613dd9576000613aa060b783614f2f565b905080876000015111613b5b576040517f08c379a000000000000000000000000000000000000000000000000000000000815260206004820152605160248201527f524c505265616465723a206c656e677468206f6620636f6e74656e74206d757360448201527f74206265203e207468616e206c656e677468206f6620737472696e67206c656e60648201527f67746820286c6f6e6720737472696e6729000000000000000000000000000000608482015260a40161063f565b60018301517fff00000000000000000000000000000000000000000000000000000000000000166000819003613c39576040517f08c379a000000000000000000000000000000000000000000000000000000000815260206004820152604a60248201527f524c505265616465723a206c656e677468206f6620636f6e74656e74206d757360448201527f74206e6f74206861766520616e79206c656164696e67207a65726f7320286c6f60648201527f6e6720737472696e672900000000000000000000000000000000000000000000608482015260a40161063f565b600184015160088302610100031c60378111613cfd576040517f08c379a000000000000000000000000000000000000000000000000000000000815260206004820152604860248201527f524c505265616465723a206c656e677468206f6620636f6e74656e74206d757360448201527f742062652067726561746572207468616e20353520627974657320286c6f6e6760648201527f20737472696e6729000000000000000000000000000000000000000000000000608482015260a40161063f565b613d078184615229565b895111613dbc576040517f08c379a000000000000000000000000000000000000000000000000000000000815260206004820152604c60248201527f524c505265616465723a206c656e677468206f6620636f6e74656e74206d757360448201527f742062652067726561746572207468616e20746f74616c206c656e677468202860648201527f6c6f6e6720737472696e67290000000000000000000000000000000000000000608482015260a40161063f565b613dc7836001615229565b97509550600094506142009350505050565b60f78111613eba576000613dee60c083614f2f565b905080876000015111613ea9576040517f08c379a000000000000000000000000000000000000000000000000000000000815260206004820152604a60248201527f524c505265616465723a206c656e677468206f6620636f6e74656e74206d757360448201527f742062652067726561746572207468616e206c697374206c656e67746820287360648201527f686f7274206c6973742900000000000000000000000000000000000000000000608482015260a40161063f565b600195509350849250614200915050565b6000613ec760f783614f2f565b905080876000015111613f82576040517f08c379a000000000000000000000000000000000000000000000000000000000815260206004820152604d60248201527f524c505265616465723a206c656e677468206f6620636f6e74656e74206d757360448201527f74206265203e207468616e206c656e677468206f66206c697374206c656e677460648201527f6820286c6f6e67206c6973742900000000000000000000000000000000000000608482015260a40161063f565b60018301517fff00000000000000000000000000000000000000000000000000000000000000166000819003614060576040517f08c379a000000000000000000000000000000000000000000000000000000000815260206004820152604860248201527f524c505265616465723a206c656e677468206f6620636f6e74656e74206d757360448201527f74206e6f74206861766520616e79206c656164696e67207a65726f7320286c6f60648201527f6e67206c69737429000000000000000000000000000000000000000000000000608482015260a40161063f565b600184015160088302610100031c60378111614124576040517f08c379a000000000000000000000000000000000000000000000000000000000815260206004820152604660248201527f524c505265616465723a206c656e677468206f6620636f6e74656e74206d757360448201527f742062652067726561746572207468616e20353520627974657320286c6f6e6760648201527f206c697374290000000000000000000000000000000000000000000000000000608482015260a40161063f565b61412e8184615229565b8951116141e3576040517f08c379a000000000000000000000000000000000000000000000000000000000815260206004820152604a60248201527f524c505265616465723a206c656e677468206f6620636f6e74656e74206d757360448201527f742062652067726561746572207468616e20746f74616c206c656e677468202860648201527f6c6f6e67206c6973742900000000000000000000000000000000000000000000608482015260a40161063f565b6141ee836001615229565b97509550600194506142009350505050565b9193909250565b60608167ffffffffffffffff811115614222576142226147d4565b6040519080825280601f01601f19166020018201604052801561424c576020820181803683370190505b509050811561225d5760006142618486615229565b90506020820160005b8481101561428257828101518282015260200161426a565b84811115614291576000858301525b5050509392505050565b606061103a826020015160008460000151614207565b60608182601f011015614320576040517f08c379a000000000000000000000000000000000000000000000000000000000815260206004820152600e60248201527f736c6963655f6f766572666c6f77000000000000000000000000000000000000604482015260640161063f565b82828401101561438c576040517f08c379a000000000000000000000000000000000000000000000000000000000815260206004820152600e60248201527f736c6963655f6f766572666c6f77000000000000000000000000000000000000604482015260640161063f565b818301845110156143f9576040517f08c379a000000000000000000000000000000000000000000000000000000000815260206004820152601160248201527f736c6963655f6f75744f66426f756e6473000000000000000000000000000000604482015260640161063f565b6060821580156144185760405191506000825260208201604052614480565b6040519150601f8416801560200281840101858101878315602002848b0101015b81831015614451578051835260209283019201614439565b5050858452601f017fffffffffffffffffffffffffffffffffffffffffffffffffffffffffffffffe016604052505b50949350505050565b60408051808201909152600080825260208201526000825111614554576040517f08c379a000000000000000000000000000000000000000000000000000000000815260206004820152604a60248201527f524c505265616465723a206c656e677468206f6620616e20524c50206974656d60448201527f206d7573742062652067726561746572207468616e207a65726f20746f20626560648201527f206465636f6461626c6500000000000000000000000000000000000000000000608482015260a40161063f565b50604080518082019091528151815260209182019181019190915290565b606060008060006145828561379a565b91945092509050600181600181111561459d5761459d6153b1565b1461462a576040517f08c379a000000000000000000000000000000000000000000000000000000000815260206004820152603860248201527f524c505265616465723a206465636f646564206974656d207479706520666f7260448201527f206c697374206973206e6f742061206c697374206974656d0000000000000000606482015260840161063f565b84516146368385615229565b146146c3576040517f08c379a000000000000000000000000000000000000000000000000000000000815260206004820152603260248201527f524c505265616465723a206c697374206974656d2068617320616e20696e766160448201527f6c696420646174612072656d61696e6465720000000000000000000000000000606482015260840161063f565b604080516020808252610420820190925290816020015b60408051808201909152600080825260208201528152602001906001900390816146da5790505093506000835b86518110156147c85760008061474d6040518060400160405280858c600001516147319190614f2f565b8152602001858c602001516147469190615229565b905261379a565b5091509150604051806040016040528083836147699190615229565b8152602001848b6020015161477e9190615229565b8152508885815181106147935761479361533d565b60209081029190910101526147a9600185615229565b93506147b58183615229565b6147bf9084615229565b92505050614707565b50845250919392505050565b7f4e487b7100000000000000000000000000000000000000000000000000000000600052604160045260246000fd5b604051601f82017fffffffffffffffffffffffffffffffffffffffffffffffffffffffffffffffe016810167ffffffffffffffff8111828210171561484a5761484a6147d4565b604052919050565b73ffffffffffffffffffffffffffffffffffffffff8116811461487457600080fd5b50565b600082601f83011261488857600080fd5b813567ffffffffffffffff8111156148a2576148a26147d4565b6148d360207fffffffffffffffffffffffffffffffffffffffffffffffffffffffffffffffe0601f84011601614803565b8181528460208386010111156148e857600080fd5b816020850160208301376000918101602001919091529392505050565b600060c0828403121561491757600080fd5b60405160c0810167ffffffffffffffff828210818311171561493b5761493b6147d4565b81604052829350843583526020850135915061495682614852565b8160208401526040850135915061496c82614852565b816040840152606085013560608401526080850135608084015260a085013591508082111561499a57600080fd5b506149a785828601614877565b60a0830152505092915050565b600080600080600085870360e08112156149cd57600080fd5b863567ffffffffffffffff808211156149e557600080fd5b6149f18a838b01614905565b97506020890135965060807fffffffffffffffffffffffffffffffffffffffffffffffffffffffffffffffc084011215614a2a57600080fd5b60408901955060c0890135925080831115614a4457600080fd5b828901925089601f840112614a5857600080fd5b8235915080821115614a6957600080fd5b508860208260051b8401011115614a7f57600080fd5b959894975092955050506020019190565b60005b83811015614aab578181015183820152602001614a93565b83811115611b6e5750506000910152565b60008151808452614ad4816020860160208601614a90565b601f017fffffffffffffffffffffffffffffffffffffffffffffffffffffffffffffffe0169290920160200192915050565b60208152600061225d6020830184614abc565b600060208284031215614b2b57600080fd5b5035919050565b600060208284031215614b4457600080fd5b813567ffffffffffffffff811115614b5b57600080fd5b614b6784828501614905565b949350505050565b803567ffffffffffffffff81168114614b8757600080fd5b919050565b600060208284031215614b9e57600080fd5b61225d82614b6f565b600080600060608486031215614bbc57600080fd5b8335614bc781614852565b92506020840135614bd781614852565b91506040840135614be781614852565b809150509250925092565b801515811461487457600080fd5b600080600080600060a08688031215614c1857600080fd5b8535614c2381614852565b945060208601359350614c3860408701614b6f565b92506060860135614c4881614bf2565b9150608086013567ffffffffffffffff811115614c6457600080fd5b614c7088828901614877565b9150509295509295909350565b8581528460208201527fffffffffffffffff0000000000000000000000000000000000000000000000008460c01b16604082015282151560f81b604882015260008251614cd1816049850160208701614a90565b919091016049019695505050505050565b600060208284031215614cf457600080fd5b815161225d81614852565b80516fffffffffffffffffffffffffffffffff81168114614b8757600080fd5b600060608284031215614d3157600080fd5b6040516060810181811067ffffffffffffffff82111715614d5457614d546147d4565b60405282518152614d6760208401614cff565b6020820152614d7860408401614cff565b60408201529392505050565b600060808284031215614d9657600080fd5b6040516080810181811067ffffffffffffffff82111715614db957614db96147d4565b8060405250823581526020830135602082015260408301356040820152606083013560608201528091505092915050565b600067ffffffffffffffff80841115614e0557614e056147d4565b8360051b6020614e16818301614803565b868152918501918181019036841115614e2e57600080fd5b865b84811015614e6257803586811115614e485760008081fd5b614e5436828b01614877565b845250918301918301614e30565b50979650505050505050565b600060208284031215614e8057600080fd5b815161225d81614bf2565b600060208284031215614e9d57600080fd5b5051919050565b7f4e487b7100000000000000000000000000000000000000000000000000000000600052601160045260246000fd5b600067ffffffffffffffff80831681851681830481118215151615614efa57614efa614ea4565b02949350505050565b600067ffffffffffffffff808316818516808303821115614f2657614f26614ea4565b01949350505050565b600082821015614f4157614f41614ea4565b500390565b7f4e487b7100000000000000000000000000000000000000000000000000000000600052601260045260246000fd5b600082614f8457614f84614f46565b7fffffffffffffffffffffffffffffffffffffffffffffffffffffffffffffffff83147f800000000000000000000000000000000000000000000000000000000000000083141615614fd857614fd8614ea4565b500590565b6000808312837f80000000000000000000000000000000000000000000000000000000000000000183128115161561501757615017614ea4565b837f7fffffffffffffffffffffffffffffffffffffffffffffffffffffffffffffff01831381161561504b5761504b614ea4565b50500390565b60007f7fffffffffffffffffffffffffffffffffffffffffffffffffffffffffffffff60008413600084138583048511828216161561509257615092614ea4565b7f800000000000000000000000000000000000000000000000000000000000000060008712868205881281841616156150cd576150cd614ea4565b600087129250878205871284841616156150e9576150e9614ea4565b878505871281841616156150ff576150ff614ea4565b505050929093029392505050565b6000808212827f7fffffffffffffffffffffffffffffffffffffffffffffffffffffffffffffff0384138115161561514757615147614ea4565b827f800000000000000000000000000000000000000000000000000000000000000003841281161561517b5761517b614ea4565b50500190565b6000817fffffffffffffffffffffffffffffffffffffffffffffffffffffffffffffffff04831182151516156151b9576151b9614ea4565b500290565b6000826151cd576151cd614f46565b500490565b868152600073ffffffffffffffffffffffffffffffffffffffff808816602084015280871660408401525084606083015283608083015260c060a083015261521d60c0830184614abc565b98975050505050505050565b6000821982111561523c5761523c614ea4565b500190565b805163ffffffff81168114614b8757600080fd5b805160ff81168114614b8757600080fd5b600060c0828403121561527857600080fd5b60405160c0810181811067ffffffffffffffff8211171561529b5761529b6147d4565b6040526152a783615241565b81526152b560208401615255565b60208201526152c660408401615255565b60408201526152d760608401615241565b60608201526152e860808401615241565b60808201526152f960a08401614cff565b60a08201529392505050565b60007fffffffffffffffffffffffffffffffffffffffffffffffffffffffffffffffff820361533657615336614ea4565b5060010190565b7f4e487b7100000000000000000000000000000000000000000000000000000000600052603260045260246000fd5b600060ff83168061537f5761537f614f46565b8060ff84160691505092915050565b600060ff821660ff8416808210156153a8576153a8614ea4565b90039392505050565b7f4e487b7100000000000000000000000000000000000000000000000000000000600052602160045260246000fdfea164736f6c634300080f000a",
  "devdoc": {
    "version": 1,
    "kind": "dev",
    "methods": {
      "GUARDIAN()": {
        "returns": {
          "_0": "Address of the guardian."
        }
      },
      "L2_ORACLE()": {
        "returns": {
          "_0": "Contract of the L2OutputOracle on this chain."
        }
      },
      "SYSTEM_CONFIG()": {
        "returns": {
          "_0": "Contract of the SystemConfig on this chain."
        }
      },
      "depositTransaction(address,uint256,uint64,bool,bytes)": {
        "params": {
          "_data": "Data to trigger the recipient with.",
          "_gasLimit": "Amount of L2 gas to purchase by burning gas on L1.",
          "_isCreation": "Whether or not the transaction is a contract creation.",
          "_to": "Target address on L2.",
          "_value": "ETH value to send to the recipient."
        }
      },
      "finalizeWithdrawalTransaction((uint256,address,address,uint256,uint256,bytes))": {
        "params": {
          "_tx": "Withdrawal transaction to finalize."
        }
      },
      "guardian()": {
        "returns": {
          "_0": "Address of the guardian."
        }
      },
      "initialize(address,address,address)": {
        "params": {
          "_l2Oracle": "Contract of the L2OutputOracle.",
          "_superchainConfig": "Contract of the SuperchainConfig.",
          "_systemConfig": "Contract of the SystemConfig."
        }
      },
      "isOutputFinalized(uint256)": {
        "params": {
          "_l2OutputIndex": "Index of the L2 output to check."
        },
        "returns": {
          "_0": "Whether or not the output is finalized."
        }
      },
      "minimumGasLimit(uint64)": {
        "params": {
          "_byteCount": "Number of bytes in the calldata."
        },
        "returns": {
          "_0": "The minimum gas limit for a deposit."
        }
      },
      "paused()": {
        "returns": {
          "paused_": "Whether or not the contract is paused."
        }
      },
      "proveWithdrawalTransaction((uint256,address,address,uint256,uint256,bytes),uint256,(bytes32,bytes32,bytes32,bytes32),bytes[])": {
        "params": {
          "_l2OutputIndex": "L2 output index to prove against.",
          "_outputRootProof": "Inclusion proof of the L2ToL1MessagePasser contract's storage root.",
          "_tx": "Withdrawal transaction to finalize.",
          "_withdrawalProof": "Inclusion proof of the withdrawal in L2ToL1MessagePasser contract."
        }
      }
    },
    "events": {
      "TransactionDeposited(address,address,uint256,bytes)": {
        "params": {
          "from": "Address that triggered the deposit transaction.",
          "opaqueData": "ABI encoded deposit data to be parsed off-chain.",
          "to": "Address that the deposit transaction is directed to.",
          "version": "Version of this deposit transaction event."
        }
      },
      "WithdrawalFinalized(bytes32,bool)": {
        "params": {
          "success": "Whether the withdrawal transaction was successful.",
          "withdrawalHash": "Hash of the withdrawal transaction."
        }
      },
      "WithdrawalProven(bytes32,address,address)": {
        "params": {
          "from": "Address that triggered the withdrawal transaction.",
          "to": "Address that the withdrawal transaction is directed to.",
          "withdrawalHash": "Hash of the withdrawal transaction."
        }
      }
    }
  },
  "numDeployments": 1,
  "solcInputHash": "0x0000000000000000000000000000000000000000000000000000000000000000",
  "storageLayout": {
    "storage": [
      {
        "astId": 47877,
        "contract": "src/L1/OptimismPortal.sol:OptimismPortal",
        "label": "_initialized",
        "offset": 0,
        "slot": "0",
        "type": "t_uint8"
      },
      {
        "astId": 47880,
        "contract": "src/L1/OptimismPortal.sol:OptimismPortal",
        "label": "_initializing",
        "offset": 1,
        "slot": "0",
        "type": "t_bool"
      },
      {
        "astId": 79419,
        "contract": "src/L1/OptimismPortal.sol:OptimismPortal",
        "label": "params",
        "offset": 0,
        "slot": "1",
        "type": "t_struct(ResourceParams)79402_storage"
      },
      {
        "astId": 79424,
        "contract": "src/L1/OptimismPortal.sol:OptimismPortal",
        "label": "__gap",
        "offset": 0,
        "slot": "2",
        "type": "t_array(t_uint256)48_storage"
      },
      {
        "astId": 78482,
        "contract": "src/L1/OptimismPortal.sol:OptimismPortal",
        "label": "l2Sender",
        "offset": 0,
        "slot": "50",
        "type": "t_address"
      },
      {
        "astId": 78487,
        "contract": "src/L1/OptimismPortal.sol:OptimismPortal",
        "label": "finalizedWithdrawals",
        "offset": 0,
        "slot": "51",
        "type": "t_mapping(t_bytes32,t_bool)"
      },
      {
        "astId": 78493,
        "contract": "src/L1/OptimismPortal.sol:OptimismPortal",
        "label": "provenWithdrawals",
        "offset": 0,
        "slot": "52",
        "type": "t_mapping(t_bytes32,t_struct(ProvenWithdrawal)78471_storage)"
      },
      {
        "astId": 78496,
        "contract": "src/L1/OptimismPortal.sol:OptimismPortal",
        "label": "spacer_53_0_1",
        "offset": 0,
        "slot": "53",
        "type": "t_bool"
      },
      {
        "astId": 78500,
        "contract": "src/L1/OptimismPortal.sol:OptimismPortal",
        "label": "superchainConfig",
        "offset": 1,
        "slot": "53",
        "type": "t_contract(SuperchainConfig)79949"
      },
      {
        "astId": 78504,
        "contract": "src/L1/OptimismPortal.sol:OptimismPortal",
        "label": "l2Oracle",
        "offset": 0,
        "slot": "54",
        "type": "t_contract(L2OutputOracle)78429"
      },
      {
        "astId": 78508,
        "contract": "src/L1/OptimismPortal.sol:OptimismPortal",
        "label": "systemConfig",
        "offset": 0,
        "slot": "55",
        "type": "t_contract(SystemConfig)80763"
      }
    ],
    "types": {
      "t_address": {
        "encoding": "inplace",
        "label": "address",
        "numberOfBytes": "20"
      },
      "t_array(t_uint256)48_storage": {
        "encoding": "inplace",
        "label": "uint256[48]",
        "numberOfBytes": "1536",
        "base": "t_uint256"
      },
      "t_bool": {
        "encoding": "inplace",
        "label": "bool",
        "numberOfBytes": "1"
      },
      "t_bytes32": {
        "encoding": "inplace",
        "label": "bytes32",
        "numberOfBytes": "32"
      },
      "t_contract(L2OutputOracle)78429": {
        "encoding": "inplace",
        "label": "contract L2OutputOracle",
        "numberOfBytes": "20"
      },
      "t_contract(SuperchainConfig)79949": {
        "encoding": "inplace",
        "label": "contract SuperchainConfig",
        "numberOfBytes": "20"
      },
      "t_contract(SystemConfig)80763": {
        "encoding": "inplace",
        "label": "contract SystemConfig",
        "numberOfBytes": "20"
      },
      "t_mapping(t_bytes32,t_bool)": {
        "encoding": "mapping",
        "key": "t_bytes32",
        "label": "mapping(bytes32 => bool)",
        "numberOfBytes": "32",
        "value": "t_bool"
      },
      "t_mapping(t_bytes32,t_struct(ProvenWithdrawal)78471_storage)": {
        "encoding": "mapping",
        "key": "t_bytes32",
        "label": "mapping(bytes32 => struct OptimismPortal.ProvenWithdrawal)",
        "numberOfBytes": "32",
        "value": "t_struct(ProvenWithdrawal)78471_storage"
      },
      "t_struct(ProvenWithdrawal)78471_storage": {
        "encoding": "inplace",
        "label": "struct OptimismPortal.ProvenWithdrawal",
        "numberOfBytes": "64",
        "members": [
          {
            "astId": 78466,
            "contract": "src/L1/OptimismPortal.sol:OptimismPortal",
            "label": "outputRoot",
            "offset": 0,
            "slot": "0",
            "type": "t_bytes32"
          },
          {
            "astId": 78468,
            "contract": "src/L1/OptimismPortal.sol:OptimismPortal",
            "label": "timestamp",
            "offset": 0,
            "slot": "1",
            "type": "t_uint128"
          },
          {
            "astId": 78470,
            "contract": "src/L1/OptimismPortal.sol:OptimismPortal",
            "label": "l2OutputIndex",
            "offset": 16,
            "slot": "1",
            "type": "t_uint128"
          }
        ]
      },
      "t_struct(ResourceParams)79402_storage": {
        "encoding": "inplace",
        "label": "struct ResourceMetering.ResourceParams",
        "numberOfBytes": "32",
        "members": [
          {
            "astId": 79397,
            "contract": "src/L1/OptimismPortal.sol:OptimismPortal",
            "label": "prevBaseFee",
            "offset": 0,
            "slot": "0",
            "type": "t_uint128"
          },
          {
            "astId": 79399,
            "contract": "src/L1/OptimismPortal.sol:OptimismPortal",
            "label": "prevBoughtGas",
            "offset": 16,
            "slot": "0",
            "type": "t_uint64"
          },
          {
            "astId": 79401,
            "contract": "src/L1/OptimismPortal.sol:OptimismPortal",
            "label": "prevBlockNum",
            "offset": 24,
            "slot": "0",
            "type": "t_uint64"
          }
        ]
      },
      "t_uint128": {
        "encoding": "inplace",
        "label": "uint128",
        "numberOfBytes": "16"
      },
      "t_uint256": {
        "encoding": "inplace",
        "label": "uint256",
        "numberOfBytes": "32"
      },
      "t_uint64": {
        "encoding": "inplace",
        "label": "uint64",
        "numberOfBytes": "8"
      },
      "t_uint8": {
        "encoding": "inplace",
        "label": "uint8",
        "numberOfBytes": "1"
      }
    }
  },
  "transactionHash": "0x8147a5ea3a17a8978e95031851750cd51e1b8a9612a0459e27c9f0d706231dd5",
  "userdoc": {
    "version": 1,
    "kind": "user",
    "methods": {
      "GUARDIAN()": {
        "notice": "Getter function for the address of the guardian.         Public getter is legacy and will be removed in the future. Use `SuperchainConfig.guardian()` instead."
      },
      "L2_ORACLE()": {
        "notice": "Getter function for the contract of the L2OutputOracle on this chain.         Public getter is legacy and will be removed in the future. Use `l2Oracle()` instead."
      },
      "SYSTEM_CONFIG()": {
        "notice": "Getter function for the contract of the SystemConfig on this chain.         Public getter is legacy and will be removed in the future. Use `systemConfig()` instead."
      },
      "constructor": {
        "notice": "Constructs the OptimismPortal contract."
      },
      "depositTransaction(address,uint256,uint64,bool,bytes)": {
        "notice": "Accepts deposits of ETH and data, and emits a TransactionDeposited event for use in         deriving deposit transactions. Note that if a deposit is made by a contract, its         address will be aliased when retrieved using `tx.origin` or `msg.sender`. Consider         using the CrossDomainMessenger contracts for a simpler developer experience."
      },
      "donateETH()": {
        "notice": "Accepts ETH value without triggering a deposit to L2.         This function mainly exists for the sake of the migration between the legacy         Optimism system and Bedrock."
      },
      "finalizeWithdrawalTransaction((uint256,address,address,uint256,uint256,bytes))": {
        "notice": "Finalizes a withdrawal transaction."
      },
      "finalizedWithdrawals(bytes32)": {
        "notice": "A list of withdrawal hashes which have been successfully finalized."
      },
      "guardian()": {
        "notice": "Getter function for the address of the guardian.         Public getter is legacy and will be removed in the future. Use `SuperchainConfig.guardian()` instead."
      },
      "initialize(address,address,address)": {
        "notice": "Initializer."
      },
      "isOutputFinalized(uint256)": {
        "notice": "Determine if a given output is finalized.         Reverts if the call to l2Oracle.getL2Output reverts.         Returns a boolean otherwise."
      },
      "l2Oracle()": {
        "notice": "Contract of the L2OutputOracle."
      },
      "l2Sender()": {
        "notice": "Address of the L2 account which initiated a withdrawal in this transaction.         If the of this variable is the default L2 sender address, then we are NOT inside of         a call to finalizeWithdrawalTransaction."
      },
      "minimumGasLimit(uint64)": {
        "notice": "Computes the minimum gas limit for a deposit.         The minimum gas limit linearly increases based on the size of the calldata.         This is to prevent users from creating L2 resource usage without paying for it.         This function can be used when interacting with the portal to ensure forwards         compatibility."
      },
      "params()": {
        "notice": "EIP-1559 style gas parameters."
      },
      "paused()": {
        "notice": "Getter for the current paused status."
      },
      "proveWithdrawalTransaction((uint256,address,address,uint256,uint256,bytes),uint256,(bytes32,bytes32,bytes32,bytes32),bytes[])": {
        "notice": "Proves a withdrawal transaction."
      },
      "provenWithdrawals(bytes32)": {
        "notice": "A mapping of withdrawal hashes to `ProvenWithdrawal` data."
      },
      "superchainConfig()": {
        "notice": "Contract of the Superchain Config."
      },
      "systemConfig()": {
        "notice": "Contract of the SystemConfig."
      },
      "version()": {
        "notice": "Semantic version."
      }
    },
    "events": {
      "TransactionDeposited(address,address,uint256,bytes)": {
        "notice": "Emitted when a transaction is deposited from L1 to L2.         The parameters of this event are read by the rollup node and used to derive deposit         transactions on L2."
      },
      "WithdrawalFinalized(bytes32,bool)": {
        "notice": "Emitted when a withdrawal transaction is finalized."
      },
      "WithdrawalProven(bytes32,address,address)": {
        "notice": "Emitted when a withdrawal transaction is proven."
      }
    },
    "notice": "The OptimismPortal is a low-level contract responsible for passing messages between L1         and L2. Messages sent directly to the OptimismPortal have no form of replayability.         Users are encouraged to use the L1CrossDomainMessenger for a higher-level interface."
  }
}